{
  "address": "0x1Edd37fc504513bAa00D782E52478d0a3f675553",
  "abi": [
    {
      "anonymous": false,
      "inputs": [
        {
          "indexed": false,
          "internalType": "uint8",
          "name": "version",
          "type": "uint8"
        }
      ],
      "name": "Initialized",
      "type": "event"
    },
    {
      "anonymous": false,
      "inputs": [
        {
          "indexed": true,
          "internalType": "address",
          "name": "previousOwner",
          "type": "address"
        },
        {
          "indexed": true,
          "internalType": "address",
          "name": "newOwner",
          "type": "address"
        }
      ],
      "name": "OwnershipTransferred",
      "type": "event"
    },
    {
      "anonymous": false,
      "inputs": [
        {
          "indexed": false,
          "internalType": "uint256",
          "name": "rollupBatchIndex",
          "type": "uint256"
        },
        {
          "indexed": false,
          "internalType": "uint32",
          "name": "dataStoreId",
          "type": "uint32"
        },
        {
          "indexed": false,
          "internalType": "uint256",
          "name": "stratL2BlockNumber",
          "type": "uint256"
        },
        {
          "indexed": false,
          "internalType": "uint256",
          "name": "endL2BlockNumber",
          "type": "uint256"
        }
      ],
      "name": "RollupStoreConfirmed",
      "type": "event"
    },
    {
      "anonymous": false,
      "inputs": [
        {
          "indexed": false,
          "internalType": "uint32",
          "name": "dataStoreId",
          "type": "uint32"
        },
        {
          "indexed": false,
          "internalType": "uint256",
          "name": "stratL2BlockNumber",
          "type": "uint256"
        },
        {
          "indexed": false,
          "internalType": "uint256",
          "name": "endL2BlockNumber",
          "type": "uint256"
        }
      ],
      "name": "RollupStoreInitialized",
      "type": "event"
    },
    {
      "anonymous": false,
      "inputs": [
        {
          "indexed": false,
          "internalType": "uint256",
          "name": "rollupBatchIndex",
          "type": "uint256"
        },
        {
          "indexed": false,
          "internalType": "uint32",
          "name": "dataStoreId",
          "type": "uint32"
        },
        {
          "indexed": false,
          "internalType": "uint256",
          "name": "stratL2BlockNumber",
          "type": "uint256"
        },
        {
          "indexed": false,
          "internalType": "uint256",
          "name": "endL2BlockNumber",
          "type": "uint256"
        }
      ],
      "name": "RollupStoreReverted",
      "type": "event"
    },
    {
      "inputs": [],
      "name": "BLOCK_STALE_MEASURE",
      "outputs": [
        {
          "internalType": "uint256",
          "name": "",
          "type": "uint256"
        }
      ],
      "stateMutability": "view",
      "type": "function"
    },
    {
      "inputs": [],
      "name": "FRAUD_STRING",
      "outputs": [
        {
          "internalType": "bytes",
          "name": "",
          "type": "bytes"
        }
      ],
      "stateMutability": "view",
      "type": "function"
    },
    {
      "inputs": [
        {
          "internalType": "bytes",
          "name": "data",
          "type": "bytes"
        },
        {
          "components": [
            {
              "components": [
                {
                  "internalType": "bytes32",
                  "name": "headerHash",
                  "type": "bytes32"
                },
                {
                  "internalType": "uint32",
                  "name": "durationDataStoreId",
                  "type": "uint32"
                },
                {
                  "internalType": "uint32",
                  "name": "globalDataStoreId",
                  "type": "uint32"
                },
                {
                  "internalType": "uint32",
                  "name": "blockNumber",
                  "type": "uint32"
                },
                {
                  "internalType": "uint96",
                  "name": "fee",
                  "type": "uint96"
                },
                {
                  "internalType": "address",
                  "name": "confirmer",
                  "type": "address"
                },
                {
                  "internalType": "bytes32",
                  "name": "signatoryRecordHash",
                  "type": "bytes32"
                }
              ],
              "internalType": "struct IDataLayrServiceManager.DataStoreMetadata",
              "name": "metadata",
              "type": "tuple"
            },
            {
              "internalType": "uint8",
              "name": "duration",
              "type": "uint8"
            },
            {
              "internalType": "uint256",
              "name": "timestamp",
              "type": "uint256"
            },
            {
              "internalType": "uint32",
              "name": "index",
              "type": "uint32"
            }
          ],
          "internalType": "struct IDataLayrServiceManager.DataStoreSearchData",
          "name": "searchData",
          "type": "tuple"
        },
        {
          "internalType": "uint256",
          "name": "startL2Block",
          "type": "uint256"
        },
        {
          "internalType": "uint256",
          "name": "endL2Block",
          "type": "uint256"
        }
      ],
      "name": "confirmData",
      "outputs": [],
      "stateMutability": "nonpayable",
      "type": "function"
    },
    {
      "inputs": [],
      "name": "dataManageAddress",
      "outputs": [
        {
          "internalType": "address",
          "name": "",
          "type": "address"
        }
      ],
      "stateMutability": "view",
      "type": "function"
    },
    {
      "inputs": [
        {
          "internalType": "uint32",
          "name": "",
          "type": "uint32"
        }
      ],
      "name": "dataStoreIdToL2RollUpBlock",
      "outputs": [
        {
          "internalType": "uint256",
          "name": "startL2BlockNumber",
          "type": "uint256"
        },
        {
          "internalType": "uint256",
          "name": "endBL2BlockNumber",
          "type": "uint256"
        }
      ],
      "stateMutability": "view",
      "type": "function"
    },
    {
      "inputs": [
        {
          "internalType": "uint32",
          "name": "",
          "type": "uint32"
        }
      ],
      "name": "dataStoreIdToRollupStoreNumber",
      "outputs": [
        {
          "internalType": "uint256",
          "name": "",
          "type": "uint256"
        }
      ],
      "stateMutability": "view",
      "type": "function"
    },
    {
      "inputs": [],
      "name": "fraudProofPeriod",
      "outputs": [
        {
          "internalType": "uint256",
          "name": "",
          "type": "uint256"
        }
      ],
      "stateMutability": "view",
      "type": "function"
    },
    {
      "inputs": [],
      "name": "getL2ConfirmedBlockNumber",
      "outputs": [
        {
          "internalType": "uint256",
          "name": "",
          "type": "uint256"
        }
      ],
      "stateMutability": "view",
      "type": "function"
    },
    {
      "inputs": [
        {
          "internalType": "uint32",
          "name": "_dataStoreId",
          "type": "uint32"
        }
      ],
      "name": "getL2RollUpBlockByDataStoreId",
      "outputs": [
        {
          "components": [
            {
              "internalType": "uint256",
              "name": "startL2BlockNumber",
              "type": "uint256"
            },
            {
              "internalType": "uint256",
              "name": "endBL2BlockNumber",
              "type": "uint256"
            }
          ],
          "internalType": "struct BVM_EigenDataLayrChain.BatchRollupBlock",
          "name": "",
          "type": "tuple"
        }
      ],
      "stateMutability": "view",
      "type": "function"
    },
    {
      "inputs": [],
      "name": "getL2StoredBlockNumber",
      "outputs": [
        {
          "internalType": "uint256",
          "name": "",
          "type": "uint256"
        }
      ],
      "stateMutability": "view",
      "type": "function"
    },
    {
      "inputs": [
        {
          "internalType": "uint256",
          "name": "_rollupBatchIndex",
          "type": "uint256"
        }
      ],
      "name": "getRollupStoreByRollupBatchIndex",
      "outputs": [
        {
          "components": [
            {
              "internalType": "uint32",
              "name": "dataStoreId",
              "type": "uint32"
            },
            {
              "internalType": "uint32",
              "name": "confirmAt",
              "type": "uint32"
            },
            {
              "internalType": "enum BVM_EigenDataLayrChain.RollupStoreStatus",
              "name": "status",
              "type": "uint8"
            }
          ],
          "internalType": "struct BVM_EigenDataLayrChain.RollupStore",
          "name": "",
          "type": "tuple"
        }
      ],
      "stateMutability": "view",
      "type": "function"
    },
    {
      "inputs": [
        {
          "internalType": "address",
          "name": "_sequencer",
          "type": "address"
        },
        {
          "internalType": "address",
          "name": "_dataManageAddress",
          "type": "address"
        },
        {
          "internalType": "uint256",
          "name": "_block_stale_measure",
          "type": "uint256"
        },
        {
          "internalType": "uint256",
          "name": "_fraudProofPeriod",
          "type": "uint256"
        },
        {
          "internalType": "uint256",
          "name": "_l2SubmittedBlockNumber",
          "type": "uint256"
        }
      ],
      "name": "initialize",
      "outputs": [],
      "stateMutability": "nonpayable",
      "type": "function"
    },
    {
      "inputs": [],
      "name": "l2ConfirmedBlockNumber",
      "outputs": [
        {
          "internalType": "uint256",
          "name": "",
          "type": "uint256"
        }
      ],
      "stateMutability": "view",
      "type": "function"
    },
    {
      "inputs": [],
      "name": "l2StoredBlockNumber",
      "outputs": [
        {
          "internalType": "uint256",
          "name": "",
          "type": "uint256"
        }
      ],
      "stateMutability": "view",
      "type": "function"
    },
    {
      "inputs": [],
      "name": "owner",
      "outputs": [
        {
          "internalType": "address",
          "name": "",
          "type": "address"
        }
      ],
      "stateMutability": "view",
      "type": "function"
    },
    {
      "inputs": [
        {
          "internalType": "bytes[]",
          "name": "polys",
          "type": "bytes[]"
        },
        {
          "internalType": "uint256",
          "name": "startIndex",
          "type": "uint256"
        },
        {
          "internalType": "uint256",
          "name": "length",
          "type": "uint256"
        }
      ],
      "name": "parse",
      "outputs": [
        {
          "internalType": "bytes",
          "name": "",
          "type": "bytes"
        }
      ],
      "stateMutability": "nonpayable",
      "type": "function"
    },
    {
      "inputs": [
        {
          "internalType": "uint256",
          "name": "fraudulentStoreNumber",
          "type": "uint256"
        },
        {
          "internalType": "uint256",
          "name": "startIndex",
          "type": "uint256"
        },
        {
          "components": [
            {
              "components": [
                {
                  "internalType": "bytes32",
                  "name": "headerHash",
                  "type": "bytes32"
                },
                {
                  "internalType": "uint32",
                  "name": "durationDataStoreId",
                  "type": "uint32"
                },
                {
                  "internalType": "uint32",
                  "name": "globalDataStoreId",
                  "type": "uint32"
                },
                {
                  "internalType": "uint32",
                  "name": "blockNumber",
                  "type": "uint32"
                },
                {
                  "internalType": "uint96",
                  "name": "fee",
                  "type": "uint96"
                },
                {
                  "internalType": "address",
                  "name": "confirmer",
                  "type": "address"
                },
                {
                  "internalType": "bytes32",
                  "name": "signatoryRecordHash",
                  "type": "bytes32"
                }
              ],
              "internalType": "struct IDataLayrServiceManager.DataStoreMetadata",
              "name": "metadata",
              "type": "tuple"
            },
            {
              "internalType": "uint8",
              "name": "duration",
              "type": "uint8"
            },
            {
              "internalType": "uint256",
              "name": "timestamp",
              "type": "uint256"
            },
            {
              "internalType": "uint32",
              "name": "index",
              "type": "uint32"
            }
          ],
          "internalType": "struct IDataLayrServiceManager.DataStoreSearchData",
          "name": "searchData",
          "type": "tuple"
        },
        {
          "components": [
            {
              "internalType": "bytes",
              "name": "header",
              "type": "bytes"
            },
            {
              "internalType": "uint32",
              "name": "firstChunkNumber",
              "type": "uint32"
            },
            {
              "internalType": "bytes[]",
              "name": "polys",
              "type": "bytes[]"
            },
            {
              "components": [
                {
                  "components": [
                    {
                      "internalType": "uint256",
                      "name": "X",
                      "type": "uint256"
                    },
                    {
                      "internalType": "uint256",
                      "name": "Y",
                      "type": "uint256"
                    }
                  ],
                  "internalType": "struct BN254.G1Point",
                  "name": "interpolationPoly",
                  "type": "tuple"
                },
                {
                  "components": [
                    {
                      "internalType": "uint256",
                      "name": "X",
                      "type": "uint256"
                    },
                    {
                      "internalType": "uint256",
                      "name": "Y",
                      "type": "uint256"
                    }
                  ],
                  "internalType": "struct BN254.G1Point",
                  "name": "revealProof",
                  "type": "tuple"
                },
                {
                  "components": [
                    {
                      "internalType": "uint256[2]",
                      "name": "X",
                      "type": "uint256[2]"
                    },
                    {
                      "internalType": "uint256[2]",
                      "name": "Y",
                      "type": "uint256[2]"
                    }
                  ],
                  "internalType": "struct BN254.G2Point",
                  "name": "zeroPoly",
                  "type": "tuple"
                },
                {
                  "internalType": "bytes",
                  "name": "zeroPolyProof",
                  "type": "bytes"
                }
              ],
              "internalType": "struct DataLayrDisclosureLogic.MultiRevealProof[]",
              "name": "multiRevealProofs",
              "type": "tuple[]"
            },
            {
              "components": [
                {
                  "internalType": "uint256[2]",
                  "name": "X",
                  "type": "uint256[2]"
                },
                {
                  "internalType": "uint256[2]",
                  "name": "Y",
                  "type": "uint256[2]"
                }
              ],
              "internalType": "struct BN254.G2Point",
              "name": "polyEquivalenceProof",
              "type": "tuple"
            }
          ],
          "internalType": "struct BVM_EigenDataLayrChain.DisclosureProofs",
          "name": "disclosureProofs",
          "type": "tuple"
        }
      ],
      "name": "proveFraud",
      "outputs": [],
      "stateMutability": "nonpayable",
      "type": "function"
    },
    {
      "inputs": [
        {
          "internalType": "address",
          "name": "_address",
          "type": "address"
        }
      ],
      "name": "removeFraudProofAddress",
      "outputs": [],
      "stateMutability": "nonpayable",
      "type": "function"
    },
    {
      "inputs": [],
      "name": "renounceOwnership",
      "outputs": [],
      "stateMutability": "nonpayable",
      "type": "function"
    },
    {
      "inputs": [],
      "name": "rollupBatchIndex",
      "outputs": [
        {
          "internalType": "uint256",
          "name": "",
          "type": "uint256"
        }
      ],
      "stateMutability": "view",
      "type": "function"
    },
    {
      "inputs": [
        {
          "internalType": "uint256",
          "name": "",
          "type": "uint256"
        }
      ],
      "name": "rollupBatchIndexRollupStores",
      "outputs": [
        {
          "internalType": "uint32",
          "name": "dataStoreId",
          "type": "uint32"
        },
        {
          "internalType": "uint32",
          "name": "confirmAt",
          "type": "uint32"
        },
        {
          "internalType": "enum BVM_EigenDataLayrChain.RollupStoreStatus",
          "name": "status",
          "type": "uint8"
        }
      ],
      "stateMutability": "view",
      "type": "function"
    },
    {
      "inputs": [],
      "name": "sequencer",
      "outputs": [
        {
          "internalType": "address",
          "name": "",
          "type": "address"
        }
      ],
      "stateMutability": "view",
      "type": "function"
    },
    {
      "inputs": [
        {
          "internalType": "address",
          "name": "_address",
          "type": "address"
        }
      ],
      "name": "setFraudProofAddress",
      "outputs": [],
      "stateMutability": "nonpayable",
      "type": "function"
    },
    {
      "inputs": [
        {
          "internalType": "bytes",
          "name": "header",
          "type": "bytes"
        },
        {
          "internalType": "uint8",
          "name": "duration",
          "type": "uint8"
        },
        {
          "internalType": "uint32",
          "name": "blockNumber",
          "type": "uint32"
        },
        {
          "internalType": "uint256",
          "name": "startL2Block",
          "type": "uint256"
        },
        {
          "internalType": "uint256",
          "name": "endL2Block",
          "type": "uint256"
        },
        {
          "internalType": "uint32",
          "name": "totalOperatorsIndex",
          "type": "uint32"
        }
      ],
      "name": "storeData",
      "outputs": [],
      "stateMutability": "nonpayable",
      "type": "function"
    },
    {
      "inputs": [
        {
          "internalType": "address",
          "name": "newOwner",
          "type": "address"
        }
      ],
      "name": "transferOwnership",
      "outputs": [],
      "stateMutability": "nonpayable",
      "type": "function"
    },
    {
      "inputs": [
        {
          "internalType": "address",
          "name": "_address",
          "type": "address"
        }
      ],
      "name": "unavailableFraudProofAddress",
      "outputs": [],
      "stateMutability": "nonpayable",
      "type": "function"
    },
    {
      "inputs": [
        {
          "internalType": "address",
          "name": "_dataManageAddress",
          "type": "address"
        }
      ],
      "name": "updateDataLayrManagerAddress",
      "outputs": [],
      "stateMutability": "nonpayable",
      "type": "function"
    },
    {
      "inputs": [
        {
          "internalType": "uint256",
          "name": "_fraudProofPeriod",
          "type": "uint256"
        }
      ],
      "name": "updateFraudProofPeriod",
      "outputs": [],
      "stateMutability": "nonpayable",
      "type": "function"
    },
    {
      "inputs": [
        {
          "internalType": "uint256",
          "name": "_l2ConfirmedBlockNumber",
          "type": "uint256"
        }
      ],
      "name": "updateL2ConfirmedBlockNumber",
      "outputs": [],
      "stateMutability": "nonpayable",
      "type": "function"
    },
    {
      "inputs": [
        {
          "internalType": "uint256",
          "name": "_l2StoredBlockNumber",
          "type": "uint256"
        }
      ],
      "name": "updateL2StoredBlockNumber",
      "outputs": [],
      "stateMutability": "nonpayable",
      "type": "function"
    },
    {
      "inputs": [
        {
          "internalType": "address",
          "name": "_sequencer",
          "type": "address"
        }
      ],
      "name": "updateSequencerAddress",
      "outputs": [],
      "stateMutability": "nonpayable",
      "type": "function"
    }
  ],
  "transactionHash": "0x8196ac489c77be1bed8e96194f51943bf63f6e35d8de98f5781ebb08bb7b0088",
  "args": [],
  "numDeployments": 1,
  "solcInputHash": "6cf6a1c489857cab7b86178a7327b973",
  "bytecode": "0x608060405234801561001057600080fd5b5061448c806100206000396000f3fe608060405234801561001057600080fd5b50600436106101e55760003560e01c8063715018a61161010f578063c8fff01b116100a2578063d7fbc2e211610071578063d7fbc2e2146104c0578063f2495029146104d3578063f2a8f124146104f3578063f2fde38b146104fc57600080fd5b8063c8fff01b1461041a578063c96c0d381461042d578063cb4909c81461049a578063d13f90b4146104ad57600080fd5b806392f30a45116100de57806392f30a45146103a25780639495de40146103de578063990fca66146103f1578063b537c4c7146103fa57600080fd5b8063715018a6146103615780637bd85879146103695780638bea6cae1461037c5780638da5cb5b1461038457600080fd5b8063301b39ab1161018757806359cb63911161015657806359cb6391146102b75780635c1bba381461030a5780635d42ffb71461034f5780635e8b3f2d1461035857600080fd5b8063301b39ab1461028157806332c58f7a146102935780633c762984146102a657806346b2eb9b146102af57600080fd5b80631f944c8f116101c35780631f944c8f14610212578063228a1b5b1461023b5780632e64b4c01461024e5780632e72866b1461026157600080fd5b806302d777de146101ea578063060ee9a4146101ff5780630a33202e146101ff575b600080fd5b6101fd6101f83660046136d7565b61050f565b005b6101fd61020d3660046136d7565b6105e8565b6102256102203660046136f2565b6106c1565b60405161023291906137a4565b60405180910390f35b6101fd61024936600461386c565b61082c565b6101fd61025c3660046138fb565b610b06565b61027461026f3660046138fb565b610b98565b604051610232919061397e565b609a545b604051908152602001610232565b6101fd6102a13660046136d7565b610c30565b610285609d5481565b610225610d0c565b6102fb6102c53660046138fb565b609e6020526000908152604090205463ffffffff8082169164010000000081049091169068010000000000000000900460ff1683565b604051610232939291906139b0565b60975461032a9073ffffffffffffffffffffffffffffffffffffffff1681565b60405173ffffffffffffffffffffffffffffffffffffffff9091168152602001610232565b610285609b5481565b61028560995481565b6101fd610d28565b6101fd610377366004613b57565b610d3c565b609b54610285565b60335473ffffffffffffffffffffffffffffffffffffffff1661032a565b6103c96103b0366004613bc1565b609f602052600090815260409020805460019091015482565b60408051928352602083019190915201610232565b6101fd6103ec3660046138fb565b611498565b610285609a5481565b610285610408366004613bc1565b60a06020526000908152604090205481565b6101fd6104283660046136d7565b61152a565b61047f61043b366004613bc1565b60408051808201909152600080825260208201525063ffffffff166000908152609f6020908152604091829020825180840190935280548352600101549082015290565b60408051825181526020928301519281019290925201610232565b6101fd6104a8366004613bde565b6115fe565b6101fd6104bb366004613c48565b611a1b565b6101fd6104ce3660046138fb565b611c01565b60985461032a9073ffffffffffffffffffffffffffffffffffffffff1681565b610285609c5481565b6101fd61050a3660046136d7565b611c93565b60975473ffffffffffffffffffffffffffffffffffffffff1633146105a15760405162461bcd60e51b815260206004820152602a60248201527f4f6e6c79207468652073657175656e6365722063616e2075706461746520646c60448201527f736d20616464726573730000000000000000000000000000000000000000000060648201526084015b60405180910390fd5b609880547fffffffffffffffffffffffff00000000000000000000000000000000000000001673ffffffffffffffffffffffffffffffffffffffff92909216919091179055565b60975473ffffffffffffffffffffffffffffffffffffffff1633146106755760405162461bcd60e51b815260206004820152603160248201527f4f6e6c79207468652073657175656e6365722063616e2072656d6f766520667260448201527f6175642070726f6f6620616464726573730000000000000000000000000000006064820152608401610598565b73ffffffffffffffffffffffffffffffffffffffff16600090815260a16020526040902080547fffffffffffffffffffffffffffffffffffffffffffffffffffffffffffffff00169055565b6060806000845b848351101561081e576000610743826106e2602082613cf3565b6106ed906001613d07565b6106f8906020613d1f565b6107029190613d3e565b855161070e9089613d3e565b848c8c8881811061072157610721613d55565b90506020028101906107339190613d84565b61073e929150613d3e565b611d30565b90508389898581811061075857610758613d55565b905060200281019061076a9190613d84565b84906107768583613d07565b9261078393929190613de9565b60405160200161079593929190613e13565b6040516020818303038152906040529350835186116107b4575061081e565b8888848181106107c6576107c6613d55565b90506020028101906107d89190613d84565b90506107e48284613d07565b141561080057826107f481613e3b565b93505060019150610818565b61080b816001613d07565b6108159083613d07565b91505b506106c8565b50909150505b949350505050565b60975473ffffffffffffffffffffffffffffffffffffffff1633146108b95760405162461bcd60e51b815260206004820152602160248201527f4f6e6c79207468652073657175656e6365722063616e2073746f72652064617460448201527f61000000000000000000000000000000000000000000000000000000000000006064820152608401610598565b6099546108cc63ffffffff861643613d3e565b106109195760405162461bcd60e51b815260206004820152601e60248201527f7374616b65732074616b656e2066726f6d20746f6f206c6f6e672061676f00006044820152606401610598565b609854604080517f72d18e8d000000000000000000000000000000000000000000000000000000008152905160009273ffffffffffffffffffffffffffffffffffffffff16916372d18e8d916004808301926020929190829003018186803b15801561098457600080fd5b505afa158015610998573d6000803e3d6000fd5b505050506040513d601f19601f820116820180604052508101906109bc9190613e56565b9050609860009054906101000a900473ffffffffffffffffffffffffffffffffffffffff1673ffffffffffffffffffffffffffffffffffffffff1663dcf49ea733308989878e8e6040518863ffffffff1660e01b8152600401610a259796959493929190613ebc565b602060405180830381600087803b158015610a3f57600080fd5b505af1158015610a53573d6000803e3d6000fd5b505050506040513d601f19601f82011682018060405250810190610a779190613e56565b50604080518082018252858152602080820186815263ffffffff85166000818152609f845285812094518555915160019094019390935560a082528390206000199055609a869055825191825281018690529081018490527fa99ca06ac3461399088feac88ec48dc5a47d61c3b6839eab20146f2c4ee535849060600160405180910390a15050505050505050565b60975473ffffffffffffffffffffffffffffffffffffffff163314610b935760405162461bcd60e51b815260206004820152603160248201527f4f6e6c79207468652073657175656e6365722063616e20736574206c6174657360448201527f74206c3220626c6f636b206e756d6265720000000000000000000000000000006064820152608401610598565b609b55565b610bb960408051606081018252600080825260208201819052909182015290565b6000828152609e60209081526040918290208251606081018452815463ffffffff8082168352640100000000820416938201939093529290919083019068010000000000000000900460ff166002811115610c1657610c16613914565b6002811115610c2757610c27613914565b90525092915050565b60975473ffffffffffffffffffffffffffffffffffffffff163314610cbd5760405162461bcd60e51b815260206004820152603a60248201527f4f6e6c79207468652073657175656e6365722063616e2073657420667261756460448201527f2070726f6f66206164647265737320756e617661696c61626c650000000000006064820152608401610598565b73ffffffffffffffffffffffffffffffffffffffff16600090815260a16020526040902080547fffffffffffffffffffffffffffffffffffffffffffffffffffffffffffffff00166001179055565b6040518060800160405280606081526020016143f76060913981565b610d30611d65565b610d3a6000611dcc565b565b33600090815260a1602052604090205460ff161515600114610dc65760405162461bcd60e51b815260206004820152602e60248201527f4f6e6c792066726175642070726f6f66207768697465206c6973742063616e2060448201527f6368616c6c656e676520646174610000000000000000000000000000000000006064820152608401610598565b6000848152609e602090815260408083208151606081018352815463ffffffff80821683526401000000008204169482019490945292909183019068010000000000000000900460ff166002811115610e2157610e21613914565b6002811115610e3257610e32613914565b9052509050600181604001516002811115610e4f57610e4f613914565b148015610e65575042816020015163ffffffff16115b610ed75760405162461bcd60e51b815260206004820152602d60248201527f526f6c6c757053746f7265206d75737420626520636f6d6d697474656420616e60448201527f6420756e636f6e6669726d6564000000000000000000000000000000000000006064820152608401610598565b8251610ee290611e43565b6098546020850151604080870151606088015191517fed82c0ee00000000000000000000000000000000000000000000000000000000815260ff9093166004840152602483015263ffffffff16604482015273ffffffffffffffffffffffffffffffffffffffff9091169063ed82c0ee9060640160206040518083038186803b158015610f6e57600080fd5b505afa158015610f82573d6000803e3d6000fd5b505050506040513d601f19601f82011682018060405250810190610fa69190613f20565b14610ff35760405162461bcd60e51b815260206004820152601e60248201527f6d6574616461746120707265696d61676520697320696e636f727265637400006044820152606401610598565b805183516040015163ffffffff90811691161461109e5760405162461bcd60e51b815260206004820152604260248201527f7365616368446174612773206461746173746f7265206964206973206e6f742060448201527f636f6e73697374656e74207769746820676976656e20726f6c6c75702073746f60648201527f7265000000000000000000000000000000000000000000000000000000000000608482015260a401610598565b6110a88280613d84565b6040516110b6929190613f39565b604051908190039020835151146111355760405162461bcd60e51b815260206004820152603260248201527f646973636c6f737572652070726f6f667320686561646572686173682070726560448201527f696d61676520697320696e636f727265637400000000000000000000000000006064820152608401610598565b6111756111428380613d84565b6111526040860160208701613bc1565b61115f6040870187613f49565b61116c6060890189613f49565b89608001611f63565b6111c15760405162461bcd60e51b815260206004820152601d60248201527f646973636c6f737572652070726f6f66732061726520696e76616c69640000006044820152606401610598565b60006111d56111d08480613d84565b61255b565b905063ffffffff81166111eb6040850185613f49565b90506111fd6040860160208701613bc1565b63ffffffff1661120d9190613d07565b11156112815760405162461bcd60e51b815260206004820152602e60248201527f43616e206f6e6c792070726f766520646174612066726f6d207468652073797360448201527f74656d61746963206368756e6b730000000000000000000000000000000000006064820152608401610598565b60006112b36112936040860186613f49565b886040518060800160405280606081526020016143f760609139516106c1565b90506040518060800160405280606081526020016143f7606091395181511461136a5760405162461bcd60e51b815260206004820152604260248201527f50617273696e67206572726f722c2070726f76656e20737472696e672069732060448201527f646966666572656e74206c656e677468207468616e206672617564207374726960648201527f6e67000000000000000000000000000000000000000000000000000000000000608482015260a401610598565b6040518060800160405280606081526020016143f760609139805190602001208180519060200120146113df5760405162461bcd60e51b815260206004820152601d60248201527f70726f76656e20737472696e6720213d20667261756420737472696e670000006044820152606401610598565b6000878152609e6020908152604080832080547fffffffffffffffffffffffffffffffffffffffffffffff00ffffffffffffffff1668020000000000000000179055875181015163ffffffff908116808552609f8452828520548a518401519092168552938290206001015482518c81529384019490945282820152606082019290925290517fca227c67a02028763083580d42e8bdef4bb49c393068d05983421cd7a4a2a5be9181900360800190a150505050505050565b60975473ffffffffffffffffffffffffffffffffffffffff1633146115255760405162461bcd60e51b815260206004820152603160248201527f4f6e6c79207468652073657175656e6365722063616e20736574206c6174657360448201527f74206c3220626c6f636b206e756d6265720000000000000000000000000000006064820152608401610598565b609a55565b60975473ffffffffffffffffffffffffffffffffffffffff1633146115b75760405162461bcd60e51b815260206004820152602f60248201527f4f6e6c79207468652073657175656e6365722063616e2075706461746520736560448201527f7175656e636572206164647265737300000000000000000000000000000000006064820152608401610598565b609780547fffffffffffffffffffffffff00000000000000000000000000000000000000001673ffffffffffffffffffffffffffffffffffffffff92909216919091179055565b60975473ffffffffffffffffffffffffffffffffffffffff16331461168b5760405162461bcd60e51b815260206004820152602160248201527f4f6e6c79207468652073657175656e6365722063616e2073746f72652064617460448201527f61000000000000000000000000000000000000000000000000000000000000006064820152608401610598565b825160409081015163ffffffff166000908152609f6020522054821480156116ce5750825160409081015163ffffffff166000908152609f602052206001015481145b6117665760405162461bcd60e51b815260206004820152605560248201527f446174612073746f72652065697468657220776173206e6f7420696e6974696160448201527f6c697a65642062792074686520726f6c6c757020636f6e74726163742c206f7260648201527f20697320616c726561647920636f6e6669726d65640000000000000000000000608482015260a401610598565b825160409081015163ffffffff16600090815260a060205220546000191461181c5760405162461bcd60e51b815260206004820152605560248201527f446174612073746f72652065697468657220776173206e6f7420696e6974696160448201527f6c697a65642062792074686520726f6c6c757020636f6e74726163742c206f7260648201527f20697320616c726561647920636f6e6669726d65640000000000000000000000608482015260a401610598565b6098546040517f5189951500000000000000000000000000000000000000000000000000000000815273ffffffffffffffffffffffffffffffffffffffff9091169063518995159061187690889088908890600401613fb1565b600060405180830381600087803b15801561189057600080fd5b505af11580156118a4573d6000803e3d6000fd5b50505050604051806060016040528084600001516040015163ffffffff168152602001609c54426118d59190613d07565b63ffffffff16815260200160019052609d546000908152609e6020908152604091829020835181549285015163ffffffff908116640100000000027fffffffffffffffffffffffffffffffffffffffffffffffff00000000000000009094169116179190911780825591830151909182907fffffffffffffffffffffffffffffffffffffffffffffff00ffffffffffffffff166801000000000000000083600281111561198457611984613914565b02179055505050609b819055609d8054845160409081015163ffffffff16600090815260a06020529081208290557fc7c0900be05d2a0ad0f77852eb975d9e862d1db0a2238617dd0f77854782f67292906119de83613e3b565b909155508451604090810151815163ffffffff93841681529216602083015281018490526060810183905260800160405180910390a15050505050565b600054610100900460ff1615808015611a3b5750600054600160ff909116105b80611a555750303b158015611a55575060005460ff166001145b611ac75760405162461bcd60e51b815260206004820152602e60248201527f496e697469616c697a61626c653a20636f6e747261637420697320616c72656160448201527f647920696e697469616c697a65640000000000000000000000000000000000006064820152608401610598565b600080547fffffffffffffffffffffffffffffffffffffffffffffffffffffffffffffff001660011790558015611b2557600080547fffffffffffffffffffffffffffffffffffffffffffffffffffffffffffff00ff166101001790555b611b2d61256a565b6097805473ffffffffffffffffffffffffffffffffffffffff8089167fffffffffffffffffffffffff00000000000000000000000000000000000000009283161790925560988054928816929091169190911790556099849055609c839055609a829055609b8290558015611bf957600080547fffffffffffffffffffffffffffffffffffffffffffffffffffffffffffff00ff169055604051600181527f7f26b83ff96e1f2b6a682f133852f6798a09c465da95921460cefb38474024989060200160405180910390a15b505050505050565b60975473ffffffffffffffffffffffffffffffffffffffff163314611c8e5760405162461bcd60e51b815260206004820152603060248201527f4f6e6c79207468652073657175656e6365722063616e2075706461746520667260448201527f6175642070726f6f6620706572696f64000000000000000000000000000000006064820152608401610598565b609c55565b611c9b611d65565b73ffffffffffffffffffffffffffffffffffffffff8116611d245760405162461bcd60e51b815260206004820152602660248201527f4f776e61626c653a206e6577206f776e657220697320746865207a65726f206160448201527f64647265737300000000000000000000000000000000000000000000000000006064820152608401610598565b611d2d81611dcc565b50565b6000828410611d4c57818310611d465781611d5b565b82611d5b565b818410611d595781611d5b565b835b90505b9392505050565b60335473ffffffffffffffffffffffffffffffffffffffff163314610d3a5760405162461bcd60e51b815260206004820181905260248201527f4f776e61626c653a2063616c6c6572206973206e6f7420746865206f776e65726044820152606401610598565b6033805473ffffffffffffffffffffffffffffffffffffffff8381167fffffffffffffffffffffffff0000000000000000000000000000000000000000831681179093556040519116919082907f8be0079c531659141344cd1fd0a4f28419497f9722a3daafe3b4186f6b6457e090600090a35050565b600080826000015183602001518460400151856060015186608001518760a001518860c00151604051602001611f26979695949392919096875260e095861b7fffffffff00000000000000000000000000000000000000000000000000000000908116602089015294861b851660248801529290941b909216602885015260a09190911b7fffffffffffffffffffffffff000000000000000000000000000000000000000016602c84015260609190911b7fffffffffffffffffffffffffffffffffffffffff000000000000000000000000166038830152604c820152606c0190565b604080517fffffffffffffffffffffffffffffffffffffffffffffffffffffffffffffffe081840301815291905280516020909101209392505050565b6000808567ffffffffffffffff811115611f7f57611f7f6139d2565b604051908082528060200260200182016040528015611fa8578160200160208202803683370190505b50905060006120358b8b6040805160c08101825260006080820181815260a0830182905282526020820181905291810182905260608101919091525050604080518082018252823581526020838101358183015282516080810184529182528383013560e090811c918301919091526044840135811c92820192909252604890920135901c606082015290565b90508460005b818110156123145761210b83612051838e61407b565b8a8a8581811061206357612063613d55565b905060200281019061207591906140a3565b8b8b8681811061208757612087613d55565b905060200281019061209991906140a3565b6040018c8c878181106120ae576120ae613d55565b90506020028101906120c091906140a3565b6080018036038101906120d39190614131565b8d8d888181106120e5576120e5613d55565b90506020028101906120f791906140a3565b61210690610100810190613d84565b6125ef565b61217d5760405162461bcd60e51b815260206004820152602260248201527f52657665616c206661696c65642064756520746f206e6f6e203120706169726960448201527f6e670000000000000000000000000000000000000000000000000000000000006064820152608401610598565b89898281811061218f5761218f613d55565b90506020028101906121a19190613d84565b9050836020015160206121b4919061418e565b65ffffffffffff161461222f5760405162461bcd60e51b815260206004820152603860248201527f506f6c796e6f6d69616c206d757374206861766520612032353620626974206360448201527f6f656666696369656e7420666f722065616368207465726d00000000000000006064820152608401610598565b89898281811061224157612241613d55565b90506020028101906122539190613d84565b604051612261929190613f39565b604051809103902088888381811061227b5761227b613d55565b905060200281019061228d91906140a3565b358989848181106122a0576122a0613d55565b90506020028101906122b291906140a3565b6040516122d993929160209081013591019283526020830191909152604082015260600190565b6040516020818303038152906040528051906020012084828151811061230157612301613d55565b602090810291909101015260010161203b565b5060007f30644e72e131a029b85045b68181585d2833e84879b9709143e1f593f00000018460405160200161234991906141ef565b6040516020818303038152906040528051906020012060001c61236c91906141fb565b905061237661361c565b7f30644e72e131a029b85045b68181585d2833e84879b9709143e1f593f00000018560006040516020016123ab92919061420f565b6040516020818303038152906040528051906020012060001c6123ce91906141fb565b80825260208201526000898982816123e8576123e8613d55565b90506020028101906123fa91906140a3565b61240a9036819003810190614228565b9050600061243c8d8d600081811061242457612424613d55565b90506020028101906124369190613d84565b866127f7565b905060015b8a811015612539576124938361248e8e8e8581811061246257612462613d55565b905060200281019061247491906140a3565b6124849036819003810190614228565b602088015161289d565b612933565b925060006124c48f8f848181106124ac576124ac613d55565b90506020028101906124be9190613d84565b886127f7565b90507f30644e72e131a029b85045b68181585d2833e84879b9709143e1f593f000000180828760016020020151098408602086015186519194507f30644e72e131a029b85045b68181585d2833e84879b9709143e1f593f000000191096020860152508061253181613e3b565b915050612441565b50612546828a86846129cf565b97505050505050505098975050505050505050565b604482013560e01c5b92915050565b600054610100900460ff166125e75760405162461bcd60e51b815260206004820152602b60248201527f496e697469616c697a61626c653a20636f6e7472616374206973206e6f74206960448201527f6e697469616c697a696e670000000000000000000000000000000000000000006064820152608401610598565b610d3a612b5e565b8251602080820151915181860151808301519051604080519485019590955293830191909152606082015260808101919091526000906126ac9060a00160405160208183030381529060405280519060200120612655898b604001518c60600151612be4565b63ffffffff166126708b6020015165ffffffffffff16612d50565b86868080601f01602080910402602001604051908101604052809392919081815260200183838082843760009201919091525061305092505050565b6126f85760405162461bcd60e51b815260206004820181905260248201527f496e636f7272656374207a65726f20706f6c79206d65726b6c652070726f6f666044820152606401610598565b87516000906127189061248e612713368b90038b018b614228565b6131c6565b604080516080810182527f198e9393920d483a7260bfb731fb5d25f1aa493335a9e71297e485b7aef312c28183019081527f1800deef121f1e76426a00665e5c4479674322d4f75edadd46debd5cd992f6ed6060830152815281518083019092527f275dc4a288d1afb3cbb1ac09187524c7db36395df7be3b99e673b13a075a65ec82527f1d9befcd05a5323e6da4d435f3b617cdb3af83285c2df711ef39c01571827f9d6020838101919091528101919091529091506127e96127e136899003890189614228565b878484613285565b9a9950505050505050505050565b600080836001825b82811015612891576000888289612817826020613d07565b9261282493929190613de9565b61282d9161425a565b90507f30644e72e131a029b85045b68181585d2833e84879b9709143e1f593f000000180848309860894507f30644e72e131a029b85045b68181585d2833e84879b9709143e1f593f00000018784099250612889602083613d07565b9150506127ff565b50919695505050505050565b60408051808201909152600080825260208201526128b961363a565b83518152602080850151908201526040808201849052600090836060846007600019fa90508061292b5760405162461bcd60e51b815260206004820152601060248201527f626e3235342d6d756c2d6661696c6564000000000000000000000000000000006044820152606401610598565b505092915050565b604080518082019091526000808252602082015261294f613658565b835181526020808501518183015283516040808401919091529084015160608301526000908360808460066107d05a03fa90508061292b5760405162461bcd60e51b815260206004820152601060248201527f626e3235342d6164642d6661696c6564000000000000000000000000000000006044820152606401610598565b604080518082019091526001815260026020820152600090816129fa6129f4836131c6565b8661289d565b604080518082019091527f220ac48bb1f91fd93f502a3d0caa077ac70e0af8819b9d8fa26a168a2c558a5781527f08f54b82af08ceaf7cd5f180bac94870f6d8100a9c9afa9dd09a4491653891126020820152909150612a5a8183612933565b91506000612a70612a6a856131c6565b8761289d565b90506000612a7e8a83612933565b604080516080810182527f198e9393920d483a7260bfb731fb5d25f1aa493335a9e71297e485b7aef312c28183019081527f1800deef121f1e76426a00665e5c4479674322d4f75edadd46debd5cd992f6ed6060830152815281518083019092527f275dc4a288d1afb3cbb1ac09187524c7db36395df7be3b99e673b13a075a65ec82527f1d9befcd05a5323e6da4d435f3b617cdb3af83285c2df711ef39c01571827f9d602083810191909152810191909152909150612b4f85612b48368d90038d018d614131565b8484613285565b9b9a5050505050505050505050565b600054610100900460ff16612bdb5760405162461bcd60e51b815260206004820152602b60248201527f496e697469616c697a61626c653a20636f6e7472616374206973206e6f74206960448201527f6e697469616c697a696e670000000000000000000000000000000000000000006064820152608401610598565b610d3a33611dcc565b600080612bf1838561407b565b90506000612c048563ffffffff166134f2565b90506000612c128684614278565b63ffffffff1615612c24576001612c27565b60005b60ff16612c34878561429b565b612c3e919061407b565b90506000612c5a612c4f83856142be565b63ffffffff166134f2565b90508663ffffffff168863ffffffff161015612c9c5780612c7b828a61351f565b612c87906101006142be565b612c91919061429b565b945050505050611d5e565b612ca687846142e1565b612cb090826142e1565b63ffffffff168863ffffffff161015612ce25780612c7b8185612cd38b8d6142e1565b612cdd919061407b565b61351f565b60405162461bcd60e51b815260206004820152603260248201527f43616e6e6f7420637265617465206e756d626572206f66206672616d6520686960448201527f67686572207468616e20706f737369626c6500000000000000000000000000006064820152608401610598565b600080612d5c8361355e565b905080612d8b57507fe82cea94884b1b895ea0742840a3b19249a723810fd1b04d8564d675b0a416f192915050565b8060011415612dbc57507f4843774a80fc8385b31024f5bd18b42e62de439206ab9468d42d826796d41f6792915050565b8060021415612ded57507f092d3e5f87f5293e7ab0cc2ca6b0b5e4adb5e0011656544915f7cea34e69e5ab92915050565b8060031415612e1e57507f494b208540ec8624fbbb3f2c64ffccdaf6253f8f4e50c0d93922d88195b0775592915050565b8060041415612e4f57507ffdb44b84a82893cfa0e37a97f09ffc4298ad5e62be1bea1d03320ae836213d2292915050565b8060051415612e8057507f3f50cb08231d2a76853ba9dbb20dad45a1b75c57cdaff6223bfe069752cff3d492915050565b8060061415612eb157507fbb39eebd8138eefd5802a49d571e65b3e0d4e32277c28fbf5fbca66e7fb0431092915050565b8060071415612ee257507ff0a39b513e11fa80cbecbf352f69310eddd5cd03148768e0e9542bd600b133ec92915050565b8060081415612f1357507f038cca2238865414efb752cc004fffec9e6069b709f495249cdf36efbd5952f692915050565b8060091415612f4457507f2a26b054ed559dd255d8ac9060ebf6b95b768d87de767f8174ad2f9a4e48dd0192915050565b80600a1415612f7557507f1fe180d0bc4ff7c69fefa595b3b5f3c284535a280f6fdcf69b20770d1e20e1fc92915050565b80600b1415612fa657507f60e34ad57c61cd6fdd8177437c30e4a30334e63d7683989570cf27020efc820192915050565b80600c1415612fd757507feda2417e770ddbe88f083acf06b6794dfb76301314a32bd0697440d76f6cd9cc92915050565b80600d141561300857507f8cbe9b8cf92ce70e3bec8e1e72a0f85569017a7e43c3db50e4a5badb8dea7ce892915050565b60405162461bcd60e51b815260206004820152601660248201527f4c6f67206e6f7420696e2076616c69642072616e6765000000000000000000006044820152606401610598565b60006020825161306091906141fb565b156130ad5760405162461bcd60e51b815260206004820152601460248201527f496e76616c69642070726f6f66206c656e6774680000000000000000000000006044820152606401610598565b6000602083516130bd9190613cf3565b90506130ca8160026143ea565b85106131185760405162461bcd60e51b815260206004820152601560248201527f4c65616620696e64657820697320746f6f2062696700000000000000000000006044820152606401610598565b60008660205b855181116131b8578581015192506131376002896141fb565b61316c576040805160208101849052908101849052606001604051602081830303815290604052805190602001209150613199565b60408051602081018590529081018390526060016040516020818303038152906040528051906020012091505b6131a4600289613cf3565b97506131b1602082613d07565b905061311e565b509094149695505050505050565b604080518082019091526000808252602082015281511580156131eb57506020820151155b15613209575050604080518082019091526000808252602082015290565b6040518060400160405280836000015181526020017f30644e72e131a029b85045b68181585d97816a916871ca8d3c208c16d87cfd47846020015161324e91906141fb565b613278907f30644e72e131a029b85045b68181585d97816a916871ca8d3c208c16d87cfd47613d3e565b905292915050565b919050565b6040805180820182528581526020808201859052825180840190935285835282018390526000916132b4613676565b60005b60028110156134795760006132cd826006613d1f565b90508482600281106132e1576132e1613d55565b602002015151836132f3836000613d07565b600c811061330357613303613d55565b602002015284826002811061331a5761331a613d55565b602002015160200151838260016133319190613d07565b600c811061334157613341613d55565b602002015283826002811061335857613358613d55565b602002015151518361336b836002613d07565b600c811061337b5761337b613d55565b602002015283826002811061339257613392613d55565b60200201515160016020020151836133ab836003613d07565b600c81106133bb576133bb613d55565b60200201528382600281106133d2576133d2613d55565b6020020151602001516000600281106133ed576133ed613d55565b6020020151836133fe836004613d07565b600c811061340e5761340e613d55565b602002015283826002811061342557613425613d55565b60200201516020015160016002811061344057613440613d55565b602002015183613451836005613d07565b600c811061346157613461613d55565b6020020152508061347181613e3b565b9150506132b7565b50613482613695565b60006020826101808560086107d05a03fa9050806134e25760405162461bcd60e51b815260206004820152601460248201527f626e3235342d70616972696e672d6661696c65640000000000000000000000006044820152606401610598565b5051151598975050505050505050565b600060015b82816001901b1015613515578061350d81613e3b565b9150506134f7565b6001901b92915050565b6000806135318463ffffffff1661355e565b61353c9060206142e1565b90508063ffffffff1661354e846135ce565b63ffffffff16901c949350505050565b60008082116135af5760405162461bcd60e51b815260206004820152601360248201527f4c6f67206d75737420626520646566696e6564000000000000000000000000006044820152606401610598565b60005b600183821c1461256457806135c681613e3b565b9150506135b2565b600080805b6020811015613615576001811b84811663ffffffff1615613602576135f982601f613d3e565b6001901b831792505b508061360d81613e3b565b9150506135d3565b5092915050565b60405180604001604052806002906020820280368337509192915050565b60405180606001604052806003906020820280368337509192915050565b60405180608001604052806004906020820280368337509192915050565b604051806101800160405280600c906020820280368337509192915050565b60405180602001604052806001906020820280368337509192915050565b803573ffffffffffffffffffffffffffffffffffffffff8116811461328057600080fd5b6000602082840312156136e957600080fd5b611d5e826136b3565b6000806000806060858703121561370857600080fd5b843567ffffffffffffffff8082111561372057600080fd5b818701915087601f83011261373457600080fd5b81358181111561374357600080fd5b8860208260051b850101111561375857600080fd5b6020928301999098509187013596604001359550909350505050565b60005b8381101561378f578181015183820152602001613777565b8381111561379e576000848401525b50505050565b60208152600082518060208401526137c3816040850160208701613774565b601f017fffffffffffffffffffffffffffffffffffffffffffffffffffffffffffffffe0169190910160400192915050565b60008083601f84011261380757600080fd5b50813567ffffffffffffffff81111561381f57600080fd5b60208301915083602082850101111561383757600080fd5b9250929050565b803560ff8116811461328057600080fd5b63ffffffff81168114611d2d57600080fd5b80356132808161384f565b600080600080600080600060c0888a03121561388757600080fd5b873567ffffffffffffffff81111561389e57600080fd5b6138aa8a828b016137f5565b90985096506138bd90506020890161383e565b945060408801356138cd8161384f565b9350606088013592506080880135915060a08801356138eb8161384f565b8091505092959891949750929550565b60006020828403121561390d57600080fd5b5035919050565b7f4e487b7100000000000000000000000000000000000000000000000000000000600052602160045260246000fd5b6003811061397a577f4e487b7100000000000000000000000000000000000000000000000000000000600052602160045260246000fd5b9052565b600060608201905063ffffffff8084511683528060208501511660208401525060408301516136156040840182613943565b63ffffffff848116825283166020820152606081016108246040830184613943565b7f4e487b7100000000000000000000000000000000000000000000000000000000600052604160045260246000fd5b6040516080810167ffffffffffffffff81118282101715613a2457613a246139d2565b60405290565b60405160e0810167ffffffffffffffff81118282101715613a2457613a246139d2565b6040805190810167ffffffffffffffff81118282101715613a2457613a246139d2565b6000818303610140811215613a8457600080fd5b613a8c613a01565b915060e0811215613a9c57600080fd5b50613aa5613a2a565b823581526020830135613ab78161384f565b60208201526040830135613aca8161384f565b60408201526060830135613add8161384f565b606082015260808301356bffffffffffffffffffffffff81168114613b0157600080fd5b6080820152613b1260a084016136b3565b60a082015260c083810135908201528152613b2f60e0830161383e565b60208201526101008201356040820152613b4c6101208301613861565b606082015292915050565b6000806000806101a08587031215613b6e57600080fd5b8435935060208501359250613b868660408701613a70565b915061018085013567ffffffffffffffff811115613ba357600080fd5b85016101008188031215613bb657600080fd5b939692955090935050565b600060208284031215613bd357600080fd5b8135611d5e8161384f565b60008060008060006101a08688031215613bf757600080fd5b853567ffffffffffffffff811115613c0e57600080fd5b613c1a888289016137f5565b9096509450613c2e90508760208801613a70565b949793965093946101608101359450610180013592915050565b600080600080600060a08688031215613c6057600080fd5b613c69866136b3565b9450613c77602087016136b3565b94979496505050506040830135926060810135926080909101359150565b7f4e487b7100000000000000000000000000000000000000000000000000000000600052601260045260246000fd5b7f4e487b7100000000000000000000000000000000000000000000000000000000600052601160045260246000fd5b600082613d0257613d02613c95565b500490565b60008219821115613d1a57613d1a613cc4565b500190565b6000816000190483118215151615613d3957613d39613cc4565b500290565b600082821015613d5057613d50613cc4565b500390565b7f4e487b7100000000000000000000000000000000000000000000000000000000600052603260045260246000fd5b60008083357fffffffffffffffffffffffffffffffffffffffffffffffffffffffffffffffe1843603018112613db957600080fd5b83018035915067ffffffffffffffff821115613dd457600080fd5b60200191503681900382131561383757600080fd5b60008085851115613df957600080fd5b83861115613e0657600080fd5b5050820193919092039150565b60008451613e25818460208901613774565b8201838582376000930192835250909392505050565b6000600019821415613e4f57613e4f613cc4565b5060010190565b600060208284031215613e6857600080fd5b8151611d5e8161384f565b8183528181602085013750600060208284010152600060207fffffffffffffffffffffffffffffffffffffffffffffffffffffffffffffffe0601f840116840101905092915050565b73ffffffffffffffffffffffffffffffffffffffff88811682528716602082015260ff8616604082015263ffffffff85811660608301528416608082015260c060a08201819052600090613f139083018486613e73565b9998505050505050505050565b600060208284031215613f3257600080fd5b5051919050565b8183823760009101908152919050565b60008083357fffffffffffffffffffffffffffffffffffffffffffffffffffffffffffffffe1843603018112613f7e57600080fd5b83018035915067ffffffffffffffff821115613f9957600080fd5b6020019150600581901b360382131561383757600080fd5b6000610160808352613fc68184018688613e73565b915050825180516020840152602081015163ffffffff808216604086015280604084015116606086015280606084015116608086015250506bffffffffffffffffffffffff60808201511660a084015273ffffffffffffffffffffffffffffffffffffffff60a08201511660c084015260c081015160e084015250602083015161405661010084018260ff169052565b50604083015161012083015260609092015163ffffffff166101409091015292915050565b600063ffffffff80831681851680830382111561409a5761409a613cc4565b01949350505050565b600082357ffffffffffffffffffffffffffffffffffffffffffffffffffffffffffffffee18336030181126140d757600080fd5b9190910192915050565b600082601f8301126140f257600080fd5b6140fa613a4d565b80604084018581111561410c57600080fd5b845b8181101561412657803584526020938401930161410e565b509095945050505050565b60006080828403121561414357600080fd5b6040516040810181811067ffffffffffffffff82111715614166576141666139d2565b60405261417384846140e1565b815261418284604085016140e1565b60208201529392505050565b600065ffffffffffff808316818516818304811182151516156141b3576141b3613cc4565b02949350505050565b60008151602080840160005b838110156141e4578151875295820195908201906001016141c8565b509495945050505050565b6000611d5e82846141bc565b60008261420a5761420a613c95565b500690565b600061421b82856141bc565b9283525050602001919050565b60006040828403121561423a57600080fd5b614242613a4d565b82358152602083013560208201528091505092915050565b8035602083101561256457600019602084900360031b1b1692915050565b600063ffffffff8084168061428f5761428f613c95565b92169190910692915050565b600063ffffffff808416806142b2576142b2613c95565b92169190910492915050565b600063ffffffff808316818516818304811182151516156141b3576141b3613cc4565b600063ffffffff838116908316818110156142fe576142fe613cc4565b039392505050565b600181815b8085111561434157816000190482111561432757614327613cc4565b8085161561433457918102915b93841c939080029061430b565b509250929050565b60008261435857506001612564565b8161436557506000612564565b816001811461437b5760028114614385576143a1565b6001915050612564565b60ff84111561439657614396613cc4565b50506001821b612564565b5060208310610133831016604e8410600b84101617156143c4575081810a612564565b6143ce8383614306565b80600019048211156143e2576143e2613cc4565b029392505050565b6000611d5e838361434956fe2d5f2860204f2060295f2d202d5f2860206f2060295f2d202d5f286020512060295f2d2042495444414f204a5553542052454b5420594f55207c5f2860204f2060295f7c202d207c5f2860206f2060295f7c202d207c5f286020512060295f7ca26469706673582212203aea25d43fc2b3a19c7e56cdb3c91148689e7c3a79eda990af593aa1d67f275964736f6c63430008090033",
  "devdoc": {
    "kind": "dev",
    "methods": {
      "confirmData(bytes,((bytes32,uint32,uint32,uint32,uint96,address,bytes32),uint8,uint256,uint32),uint256,uint256)": {
        "details": "Only dataStores created through this contract can be confirmed by calling this function.",
        "params": {
          "data": "Input of the header information for a dataStore and signatures for confirming the dataStore -- used as input to the `confirmDataStore` function of the DataLayrServiceManager -- see the DataLayr docs for more info on this.",
          "searchData": "Data used to specify the dataStore being confirmed. Must be provided so other contracts can properly look up the dataStore."
        }
      },
      "getL2ConfirmedBlockNumber()": {
        "returns": {
          "_0": "Latest stored L2 block number."
        }
      },
      "getL2RollUpBlockByDataStoreId(uint32)": {
        "returns": {
          "_0": "BatchRollupBlock."
        }
      },
      "getL2StoredBlockNumber()": {
        "returns": {
          "_0": "Latest stored L2 block number."
        }
      },
      "getRollupStoreByRollupBatchIndex(uint256)": {
        "returns": {
          "_0": "RollupStore."
        }
      },
      "owner()": {
        "details": "Returns the address of the current owner."
      },
      "proveFraud(uint256,uint256,((bytes32,uint32,uint32,uint32,uint96,address,bytes32),uint8,uint256,uint32),(bytes,uint32,bytes[],((uint256,uint256),(uint256,uint256),(uint256[2],uint256[2]),bytes)[],(uint256[2],uint256[2])))": {
        "details": "This function is only callable if: -the sequencer is staked, -the dataStore in question has been confirmed, and -the fraudproof period for the dataStore has not yet passed.",
        "params": {
          "disclosureProofs": "Non-interactive polynomial proofs that prove that the specific data of interest was part of the dataStore in question.",
          "fraudulentStoreNumber": "The rollup l2Block to prove fraud on",
          "searchData": "Data used to specify the dataStore being fraud-proven. Must be provided so other contracts can properly look up the dataStore.",
          "startIndex": "The index to begin reading the proven data from"
        }
      },
      "removeFraudProofAddress(address)": {
        "params": {
          "_address": "for fraud proof"
        }
      },
      "renounceOwnership()": {
        "details": "Leaves the contract without owner. It will not be possible to call `onlyOwner` functions anymore. Can only be called by the current owner. NOTE: Renouncing ownership will leave the contract without an owner, thereby removing any functionality that is only available to the owner."
      },
      "setFraudProofAddress(address)": {
        "params": {
          "_address": "for fraud proof"
        }
      },
      "storeData(bytes,uint8,uint32,uint256,uint256,uint32)": {
        "details": "The specified `blockNumber `must be less than `BLOCK_STALE_MEASURE` blocks in the past.",
        "params": {
          "blockNumber": "is the previous block number which was used to encode the data for storage",
          "duration": "is the duration to store the datastore for",
          "header": "of data to be stored",
          "totalOperatorsIndex": "is index in the totalOperators array of DataLayr referring to what the total number of operators was at `blockNumber`"
        }
      },
      "transferOwnership(address)": {
        "details": "Transfers ownership of the contract to a new account (`newOwner`). Can only be called by the current owner."
      },
      "unavailableFraudProofAddress(address)": {
        "params": {
          "_address": "for fraud proof"
        }
      },
      "updateDataLayrManagerAddress(address)": {
        "params": {
          "_dataManageAddress": "dlsm address"
        }
      },
      "updateFraudProofPeriod(uint256)": {
        "params": {
          "_fraudProofPeriod": "fraud proof period"
        }
      },
      "updateL2ConfirmedBlockNumber(uint256)": {
        "params": {
          "_l2ConfirmedBlockNumber": "l2 latest block number"
        }
      },
      "updateL2StoredBlockNumber(uint256)": {
        "params": {
          "_l2StoredBlockNumber": "l2 latest block number"
        }
      },
      "updateSequencerAddress(address)": {
        "params": {
          "_sequencer": "update sequencer address"
        }
      }
    },
    "version": 1
  },
  "userdoc": {
    "kind": "user",
    "methods": {
      "confirmData(bytes,((bytes32,uint32,uint32,uint32,uint96,address,bytes32),uint8,uint256,uint32),uint256,uint256)": {
        "notice": "After the `storeData `transaction is included in a block and doesnt revert, the sequencer will disperse the data to the DataLayr nodes off chain and get their signatures that they have stored the data. Now, the sequencer has to post the signature on chain and get it verified."
      },
      "getL2ConfirmedBlockNumber()": {
        "notice": "Returns the block number of the latest stored L2."
      },
      "getL2RollUpBlockByDataStoreId(uint32)": {
        "notice": "Returns the l2 block number by store id"
      },
      "getL2StoredBlockNumber()": {
        "notice": "Returns the block number of the latest stored L2."
      },
      "getRollupStoreByRollupBatchIndex(uint256)": {
        "notice": "Returns the rollup store by l2 block number"
      },
      "proveFraud(uint256,uint256,((bytes32,uint32,uint32,uint32,uint96,address,bytes32),uint8,uint256,uint32),(bytes,uint32,bytes[],((uint256,uint256),(uint256,uint256),(uint256[2],uint256[2]),bytes)[],(uint256[2],uint256[2])))": {
        "notice": "Called by a challenger (this could be anyone -- \"challenger\" is not a permissioned role) to prove that fraud has occurred. First, a subset of data included in a dataStore that was initiated by the sequencer is proven, and then the presence of fraud in the data is checked. For the sake of this example, \"fraud occurring\" means that the sequencer included the forbidden `FRAUD_STRING` in a dataStore that they initiated. In pratical use, \"fraud occurring\" might mean including data that specifies an invalid transaction or invalid state transition."
      },
      "removeFraudProofAddress(address)": {
        "notice": "remove fraud proof address"
      },
      "setFraudProofAddress(address)": {
        "notice": "set fraud proof address"
      },
      "storeData(bytes,uint8,uint32,uint256,uint256,uint32)": {
        "notice": "Called by the (staked) sequencer to pay for a datastore and post some metadata (in the `header` parameter) about it on chain. Since the sequencer must encode the data before they post the header on chain, they must use a *snapshot* of the number and stakes of DataLayr operators from a previous block number, specified by the `blockNumber` input."
      },
      "unavailableFraudProofAddress(address)": {
        "notice": "unavailable fraud proof address"
      },
      "updateDataLayrManagerAddress(address)": {
        "notice": "update dlsm address"
      },
      "updateFraudProofPeriod(uint256)": {
        "notice": "update fraud proof period"
      },
      "updateL2ConfirmedBlockNumber(uint256)": {
        "notice": "update l2 latest confirm block number"
      },
      "updateL2StoredBlockNumber(uint256)": {
        "notice": "update l2 latest store block number"
      },
      "updateSequencerAddress(address)": {
        "notice": "update sequencer address"
      }
    },
    "version": 1
  },
  "storageLayout": {
    "storage": [
      {
        "astId": 138,
        "contract": "contracts/da/BVM_EigenDataLayrChain.sol:BVM_EigenDataLayrChain",
        "label": "_initialized",
        "offset": 0,
        "slot": "0",
        "type": "t_uint8"
      },
      {
        "astId": 141,
        "contract": "contracts/da/BVM_EigenDataLayrChain.sol:BVM_EigenDataLayrChain",
        "label": "_initializing",
        "offset": 1,
        "slot": "0",
        "type": "t_bool"
      },
      {
        "astId": 752,
        "contract": "contracts/da/BVM_EigenDataLayrChain.sol:BVM_EigenDataLayrChain",
        "label": "__gap",
        "offset": 0,
        "slot": "1",
        "type": "t_array(t_uint256)50_storage"
      },
      {
        "astId": 10,
        "contract": "contracts/da/BVM_EigenDataLayrChain.sol:BVM_EigenDataLayrChain",
        "label": "_owner",
        "offset": 0,
        "slot": "51",
        "type": "t_address"
      },
      {
        "astId": 130,
        "contract": "contracts/da/BVM_EigenDataLayrChain.sol:BVM_EigenDataLayrChain",
        "label": "__gap",
        "offset": 0,
        "slot": "52",
        "type": "t_array(t_uint256)49_storage"
      },
      {
        "astId": 423,
        "contract": "contracts/da/BVM_EigenDataLayrChain.sol:BVM_EigenDataLayrChain",
        "label": "_status",
        "offset": 0,
        "slot": "101",
        "type": "t_uint256"
      },
      {
        "astId": 467,
        "contract": "contracts/da/BVM_EigenDataLayrChain.sol:BVM_EigenDataLayrChain",
        "label": "__gap",
        "offset": 0,
        "slot": "102",
        "type": "t_array(t_uint256)49_storage"
      },
      {
        "astId": 13534,
        "contract": "contracts/da/BVM_EigenDataLayrChain.sol:BVM_EigenDataLayrChain",
        "label": "sequencer",
        "offset": 0,
        "slot": "151",
        "type": "t_address"
      },
      {
        "astId": 13536,
        "contract": "contracts/da/BVM_EigenDataLayrChain.sol:BVM_EigenDataLayrChain",
        "label": "dataManageAddress",
        "offset": 0,
        "slot": "152",
        "type": "t_address"
      },
      {
        "astId": 13538,
        "contract": "contracts/da/BVM_EigenDataLayrChain.sol:BVM_EigenDataLayrChain",
        "label": "BLOCK_STALE_MEASURE",
        "offset": 0,
        "slot": "153",
        "type": "t_uint256"
      },
      {
        "astId": 13540,
        "contract": "contracts/da/BVM_EigenDataLayrChain.sol:BVM_EigenDataLayrChain",
        "label": "l2StoredBlockNumber",
        "offset": 0,
        "slot": "154",
        "type": "t_uint256"
      },
      {
        "astId": 13542,
        "contract": "contracts/da/BVM_EigenDataLayrChain.sol:BVM_EigenDataLayrChain",
        "label": "l2ConfirmedBlockNumber",
        "offset": 0,
        "slot": "155",
        "type": "t_uint256"
      },
      {
        "astId": 13544,
        "contract": "contracts/da/BVM_EigenDataLayrChain.sol:BVM_EigenDataLayrChain",
        "label": "fraudProofPeriod",
        "offset": 0,
        "slot": "156",
        "type": "t_uint256"
      },
      {
        "astId": 13546,
        "contract": "contracts/da/BVM_EigenDataLayrChain.sol:BVM_EigenDataLayrChain",
        "label": "rollupBatchIndex",
        "offset": 0,
        "slot": "157",
        "type": "t_uint256"
      },
      {
        "astId": 13574,
        "contract": "contracts/da/BVM_EigenDataLayrChain.sol:BVM_EigenDataLayrChain",
        "label": "rollupBatchIndexRollupStores",
        "offset": 0,
        "slot": "158",
        "type": "t_mapping(t_uint256,t_struct(RollupStore)13564_storage)"
      },
      {
        "astId": 13579,
        "contract": "contracts/da/BVM_EigenDataLayrChain.sol:BVM_EigenDataLayrChain",
        "label": "dataStoreIdToL2RollUpBlock",
        "offset": 0,
        "slot": "159",
        "type": "t_mapping(t_uint32,t_struct(BatchRollupBlock)13569_storage)"
      },
      {
        "astId": 13583,
        "contract": "contracts/da/BVM_EigenDataLayrChain.sol:BVM_EigenDataLayrChain",
        "label": "dataStoreIdToRollupStoreNumber",
        "offset": 0,
        "slot": "160",
        "type": "t_mapping(t_uint32,t_uint256)"
      },
      {
        "astId": 13587,
        "contract": "contracts/da/BVM_EigenDataLayrChain.sol:BVM_EigenDataLayrChain",
        "label": "fraudProofWhitelist",
        "offset": 0,
        "slot": "161",
        "type": "t_mapping(t_address,t_bool)"
      }
    ],
    "types": {
      "t_address": {
        "encoding": "inplace",
        "label": "address",
        "numberOfBytes": "20"
      },
      "t_array(t_uint256)49_storage": {
        "base": "t_uint256",
        "encoding": "inplace",
        "label": "uint256[49]",
        "numberOfBytes": "1568"
      },
      "t_array(t_uint256)50_storage": {
        "base": "t_uint256",
        "encoding": "inplace",
        "label": "uint256[50]",
        "numberOfBytes": "1600"
      },
      "t_bool": {
        "encoding": "inplace",
        "label": "bool",
        "numberOfBytes": "1"
      },
      "t_enum(RollupStoreStatus)13517": {
        "encoding": "inplace",
        "label": "enum BVM_EigenDataLayrChain.RollupStoreStatus",
        "numberOfBytes": "1"
      },
      "t_mapping(t_address,t_bool)": {
        "encoding": "mapping",
        "key": "t_address",
        "label": "mapping(address => bool)",
        "numberOfBytes": "32",
        "value": "t_bool"
      },
      "t_mapping(t_uint256,t_struct(RollupStore)13564_storage)": {
        "encoding": "mapping",
        "key": "t_uint256",
        "label": "mapping(uint256 => struct BVM_EigenDataLayrChain.RollupStore)",
        "numberOfBytes": "32",
        "value": "t_struct(RollupStore)13564_storage"
      },
      "t_mapping(t_uint32,t_struct(BatchRollupBlock)13569_storage)": {
        "encoding": "mapping",
        "key": "t_uint32",
        "label": "mapping(uint32 => struct BVM_EigenDataLayrChain.BatchRollupBlock)",
        "numberOfBytes": "32",
        "value": "t_struct(BatchRollupBlock)13569_storage"
      },
      "t_mapping(t_uint32,t_uint256)": {
        "encoding": "mapping",
        "key": "t_uint32",
        "label": "mapping(uint32 => uint256)",
        "numberOfBytes": "32",
        "value": "t_uint256"
      },
      "t_struct(BatchRollupBlock)13569_storage": {
        "encoding": "inplace",
        "label": "struct BVM_EigenDataLayrChain.BatchRollupBlock",
        "members": [
          {
            "astId": 13566,
            "contract": "contracts/da/BVM_EigenDataLayrChain.sol:BVM_EigenDataLayrChain",
            "label": "startL2BlockNumber",
            "offset": 0,
            "slot": "0",
            "type": "t_uint256"
          },
          {
            "astId": 13568,
            "contract": "contracts/da/BVM_EigenDataLayrChain.sol:BVM_EigenDataLayrChain",
            "label": "endBL2BlockNumber",
            "offset": 0,
            "slot": "1",
            "type": "t_uint256"
          }
        ],
        "numberOfBytes": "64"
      },
      "t_struct(RollupStore)13564_storage": {
        "encoding": "inplace",
        "label": "struct BVM_EigenDataLayrChain.RollupStore",
        "members": [
          {
            "astId": 13558,
            "contract": "contracts/da/BVM_EigenDataLayrChain.sol:BVM_EigenDataLayrChain",
            "label": "dataStoreId",
            "offset": 0,
            "slot": "0",
            "type": "t_uint32"
          },
          {
            "astId": 13560,
            "contract": "contracts/da/BVM_EigenDataLayrChain.sol:BVM_EigenDataLayrChain",
            "label": "confirmAt",
            "offset": 4,
            "slot": "0",
            "type": "t_uint32"
          },
          {
            "astId": 13563,
            "contract": "contracts/da/BVM_EigenDataLayrChain.sol:BVM_EigenDataLayrChain",
            "label": "status",
            "offset": 8,
            "slot": "0",
            "type": "t_enum(RollupStoreStatus)13517"
          }
        ],
        "numberOfBytes": "32"
      },
      "t_uint256": {
        "encoding": "inplace",
        "label": "uint256",
        "numberOfBytes": "32"
      },
      "t_uint32": {
        "encoding": "inplace",
        "label": "uint32",
        "numberOfBytes": "4"
      },
      "t_uint8": {
        "encoding": "inplace",
        "label": "uint8",
        "numberOfBytes": "1"
      }
    }
  }
}